:020000040000fa
:080000000002040000000000f2
:020000040000fa
:100400008faa20000eff27000e01880000000000c8
:100410000c000700c0dd21000100200011000700d2
:10042000000020000000e000020032000000020096
:10043000000000008e1c0200000000000040da00f6
:100440000000fe004440a900400b20000000e00036
:100450000300320000002000a00188004440a800f2
:100460000000060091018800800078000000eb0089
:1004700015003700e280400032a0b4009101ba00bc
:10048000e280400032a0b4009102ba00e280400055
:1004900032a0b4000002eb00472bde00f507b200eb
:1004a000602ce10004003a000059eb008301e900f0
:1004b000fdff3e00040037006128e100010032002a
:1004c0000082eb00040007001101ba000200e00006
:1004d000e8ff3a00000006003159ba008301e90044
:1004e0000c0032002159ba008301e90008003200f3
:1004f0000400e00003003a00e280400032a0b400b3
:10050000f5ff370011d9ba008301e900faff3a007c
:100510008100e800e180400032a0b4000000060045
:100520000040da000000fe000a00fa0080017800b6
:10053000e20f500028003e0030558000e10f5000cf
:1005400008003200802320000000e0000500320097
:10055000042320002523200046232000800178006a
:10056000040037000422200025222000462220001b
:1005700083222000144090000004e00004003500b5
:100580008009eb00144090000074a0001042980015
:10059000154090000028a30003003a001540900089
:1005a0000024a000904298008001eb000700370073
:1005b000154090000008a300fdff320063c07800e2
:1005c0000000fb00000b78008301e800828f5100df
:1005d000f7ff3a000800370030002000b0bf9f004e
:1005e000c3bf9f00d1bf9f00e2bf9f006a8057003a
:1005f00000c0da006fb99700020078000080fa00ae
:1006000000000600889fbe008a9fbe00010578009a
:100610000100e0000400350008003c000000e0009c
:10062000200032000500370060001000e080180054
:1006300002003b0001f02c001a0037000004be004d
:100640006011b8006b0920000982cf000200390058
:100650000882cf000441b000694252000e0032000f
:1006600008003b0082817100610164008904d100af
:100670000884d3008b05e8000442e800f9ff3a0043
:10068000050037000804440089844c008b05e9000c
:100690000442e900fbff3a00dd0007000af0a70072
:1006a00001f0a0004f05be004f04be000000060090
:1006b000889fbe008a9fbe008c1f7800fa0007004a
:1006c0000101330003866c006450e1002e0032000b
:1006d0006420e100330032006150e1002f0032005d
:1006e0006120e1003100320085855500eb07b00044
:1006f0000900200008042000050037000804440019
:1007000089844c000a0031000603430087834b00b4
:100710000001530081815b00f8ff33000203be003b
:100720000800a0000804440089844c00f6ff39004a
:10073000c639dd0083017300010032001300200080
:100740008904d1000884d3000998a3000500320071
:100750000800a7000300a0008904d1000884d3008a
:100760008b05e8008904d1000884d3000001eb0068
:100770000281d200a600070001f0a1000cf0a70042
:1007800001f0a000d90037006420e100db00320056
:100790000801be000200be00f7ff37006120e10043
:1007a000d60032006000b800f3ff370000002000e0
:1007b00001f82700f0ff3700889fbe008a9fbe0027
:1007c0008c1f7800b8000700bf00330003866c0060
:1007d0006450e100240032006420e1002700320070
:1007e0006150e100220032006120e100210032006e
:1007f0008b854200eb07b1000134b800003ab80025
:100800000804420089844a00013ab8000030b80068
:100810008880400009014a000400330000004000c5
:1008200081804800020149008b05e900c909dd000b
:10083000830170000100320013002000c814de00a4
:100840004814dd004709de001200b200c808de00cf
:10085000088470006e00070001f0a1000cf0a700f2
:1008600001f0a000a10037006120e100a3003200e8
:100870000801be000200be00f7ff37006150e10032
:10088000fcff3a009d00370003f0a200889fbe00e5
:100890008a9fbe008c1f7800830007008a00330007
:1008a0006450e1004f0032006420e1005200320049
:1008b00003826c0007003b000905d0000306d0004e
:1008c000820f54000c065d00020039000200320065
:1008d00089017800030678008582550004003d00f8
:1008e0000003fd008103fd008502ea008b854200c4
:1008f000840f720002003b0060001000e0801800ce
:100900006011b8000005eb007a28e1000a00390008
:1009100006007800c75ddd00f707b200878075002c
:100920002d003700828171000a01780061056000a6
:100930008180d1000080d3008502e900f9ff3b00ef
:10094000060440008784480002003b006004140055
:10095000e0841c000988a300070032008a8171002e
:1009600082817100610164008904d1000884d30090
:100970008b05e800170037000978a30013003a0040
:100980000b00e000130034008b05e900080444006c
:1009900089844c000a4474000978a3000d003a00d1
:1009a0000b00e000070034008b05e9000804440058
:1009b00089844c0001003a000b0020000978a30054
:1009c000f7ff32000001eb00020037008281710066
:1009d0000a0178000e0007000cf0a70001f0a0004b
:1009e000420037006420e10002003a00838f6c006f
:1009f000420033000801be000200be003b00370089
:100a0000f4ff2f0040003700140020003e003700a4
:100a100081002000618055000b003d000b0020008c
:100a200061fe2f000100e1001d0034008281710091
:100a3000610164008904d1000884d3000000e8004b
:100a4000faff3a00710020006100640003007000aa
:100a5000020060000900320061044400e0844c00a0
:100a60000988a500050032008b05e8006808e10050
:100a700002003a008904d1000884d300f20f20005c
:100a80000258e10005003d00c75ddd00f907b20036
:100a90008980750008007800000006000bf8270028
:100aa0008b007800000005000004be003100070044
:100ab0000003be000405be000200be002d000700ba
:100ac000844f7500000006000200be006450e10083
:100ad000050036006420e100020036000968a3002a
:100ae00001003a000800be000160a0004f06780037
:100af0004f05be004f04be0000000600f0ff2f00af
:100b0000f1ff2700f9ff3700889fbe008a9fbe00d3
:100b1000841f7800e4ff07004f00780011003300c5
:100b2000f0ff2f00838f6c0006003b00040565007a
:100b30000a00a7000800370009f0a60010002000f6
:100b400008003700820f5400838f5c0003003900d7
:100b50001000200001003e000000200009f0a70066
:100b60000000ea004f05be004f04be000000e00098
:100b700000000600c70ade00f107b200f50fb20060
:100b800008003200e1cf4200020032000170a000f4
:100b900024000500810f70000100320004080500e8
:100ba00044000500810f700002003a0014000500a7
:100bb0008502e9000000400081c04800fcff3b00c6
:100bc0000170a000240005002800fa00889fbe00e4
:100bd0008a9fbe008c9fbe0003866b001703070030
:100be0000028a30064003a000128a30067003a002f
:100bf0000008a30062003a000108a30065003a0063
:100c00001e009000be08900081064000ed3fb1003c
:100c1000f4805700ee019000111ab8008e09900080
:100c2000311bb8009e099000311cb800511db8005e
:100c3000f485570046000700fe0190003a000700c7
:100c40008b85e8003e0007008e09900040000700f9
:100c5000ee019000340007008b85e80038000700a3
:100c60008e099000400007009e0990001b18b800f4
:100c7000890440000a854800fe0190003400070006
:100c80008b85e80038000700ee0190003000070077
:100c90008e0990001b18b800890440000a8548009e
:100ca0000a98a30008003a000402420085824a0024
:100cb00006034b0087834b0008044c0089844c00da
:100cc0000a054d008d06e9008482720085027300da
:100cd0004c3add0085027200010032001500200050
:100ce000443ade001400b2004538de00cb45dd009a
:100cf0000b007000c540de00cb4ddd008b80700026
:100d00004549de00cb55dd000b017100c551de0009
:100d10000d037800e202070003f0a1000cf0a70029
:100d200003f0a000d90237001b18b800850240006c
:100d300006834800e0834b0060044c000700370046
:100d40001b18b8000603400087834800faff3700ed
:100d50001b18b8008703400008844800e0844c005a
:100d600060054d00000006001b18b8000804400094
:100d700089844800faff37000108a300c0023a0046
:100d80005800be005801be00e3ff37000008a30072
:100d9000bb023a0009047800f9ff370081037800ac
:100da00074ff07000001be006000b8000478a300d3
:100db00013003a006220e10015003e000d003900ea
:100dc0008301d1000281d3008180d3008301d1004f
:100dd0000281d3008180d3008301d1000281d3003e
:100de0008180d3000538b000c42add00f300b200d2
:100df0008381720007f0a70003f0a0000000060046
:100e0000f3ff2700f2ff2f006110b900fbff37004e
:100e100003ff2700f7ff37008f1fd100cc02070028
:100e20008f87e9000000e00000000600801feb0053
:100e3000c70207008f87e9000000e00000000600fd
:100e40001400fa00889fbe008a9fbe008c9fbe00df
:100e50000005be000206be00680047000c90be0000
:100e60000a90be00e30207006400e1001a003200ad
:100e700016003e006100e1001a0032006e0490008e
:100e8000fe0490000e0b90009e0b90006011b800c5
:100e90009e0590000b38b100d501200082817100c1
:100ea000610164008703d1000683d3008984d300e5
:100eb0000884d3008502e900f8ff3a00d4fe070059
:100ec0000df0a70001f0a00070023700f1ff27002d
:100ed000f0ff2f006d02370001f82700000020000e
:100ee000f7ff37006000b800f5ff3700e8020700a1
:100ef0000509780000000600809feb0094020700bf
:100f00008f87e9000000e000000006002800fa00da
:100f1000889fbe008a9fbe008c9fbe000706780097
:100f2000878669000c003b00030478008704780082
:100f300008f0a10009f0a100840f5000858f58002f
:100f4000860f5900890f5c00030033000cf0a200eb
:100f500001003a000cf0a100380207006400e10033
:100f60005f003200780147006408e1006100320050
:100f70006c014700748557003200be001201be00ac
:100f80003a04be001a05be001e039000be0a90007f
:100f90008503530006003d000004fd008104fd00b0
:100fa0000205fd008305fd008703ea0005037800c4
:100fb0000df8a3000400320060041400e0841c005b
:100fc00060051d00e0851d006022b8007d03200043
:100fd0000d38e1008006eb000b0039004433dd00e2
:100fe000f300b2008301730039003700848272007d
:100ff0000d027800e10664008b85d1000a85d300dc
:101000008984d3000884d3008703e900f7ff3b00fd
:1010100008004000898048000a0149008b8149008e
:1010200004003b0060001000e0801800600119001f
:10103000e08119000358a300090032008d8272007c
:1010400084827200610260008301d1000281d300ba
:101050008180d3000080d3000603e8001b00370026
:101060000348a30017003a000600e0001700340010
:101070000603e9000d00a30000004800818048003d
:1010800002014900838149000348a3000f003a0090
:101090000600e000090034000603e90000004000fb
:1010a00081804800020149008381490001003a0023
:1010b0000003eb000348a300f5ff32006022b800f4
:1010c000020037008482720061826600f40107002a
:1010d00003f0a1000cf0a70003f0a000eb01370023
:1010e000640147006408e10002003a000df8a30023
:1010f000e3013a003200be001201be00e3013700f6
:101100001400fa00889fbe008a9fbe008c9fbe001c
:101110000004be000205be00680047000a90be0041
:101120000890be00330207000070a7000bf0a1007a
:101130000bf8a30020003a009e0990000e099000d1
:10114000fe0090006e0090009e029000344320004c
:1011500084825200cd0132000a003c00b4fc2f0012
:101160000428e100140034008301d1000281d3007f
:101170008180d3000080d3008502e800faff3a00a6
:10118000c2013700b40020000428e10007003c0041
:10119000000040008180480002014900838149002d
:1011a0008502e900faff3a00b80137000300280081
:1011b00002002000010037006011b8006000b80094
:1011c000b20137002800fa00889fbe008a9fbe0047
:1011d0008c9fbe0003866b00980107006400e1004d
:1011e000440032006408e1004a0032006100e1007e
:1011f000460032006108e10049003200ec06470079
:101200006000b8003d02be003d03be00f4865700fa
:101210006011b8003d04be003d05be007d03200006
:101220000b0037000000a0008d06e900130032001b
:101230000402420085824a0006034b0087834b006c
:10124000000040008180480002014900838149007c
:101250000802520089825a000a035b008b835b00fc
:10126000f0ff3b000802420089824a000a034b005b
:101270008b834b008d06e900edff3a0084827200fb
:1012800086827200f707b200878272000100320086
:10129000150020001e0490003e0b90000603540031
:1012a000e63fb0000368a300070032000000a7007b
:1012b0000500a0008301d1000281d3008180d3000a
:1012c0000080d3000603e8008301d1000281d3002f
:1012d0008180d3000080d3000002eb000482d200a2
:1012e0006f01070003f0a1000cf0a70003f0a000bd
:1012f00066013700640247006408e10060013200c3
:101300003400be003401be00f6ff37006108e10082
:101310005b0132006011b8006000b800f1ff3700d7
:1013200003ff270002002000fbff3700889fbe005c
:10133000830478000300e0002c00350003003c002b
:101340000082700004027100260032003643200043
:10135000c50020008383cf000a0039000541b10099
:101360008283cf00070039000541b1008183cf009f
:10137000040039000541b1008083cf00010039002d
:101380000541b10085c353006022b800120032004d
:101390000a003b0084827200610260008301d10078
:1013a0000281d3008180d3000080d3000603e800cf
:1013b0008743e800f7ff3a000700370000004000cd
:1013c0008180480002014900838149000603e90049
:1013d0008743e900f9ff3a003101070009f0a7004f
:1013e00003f0a0004f04be000000060060001000e3
:1013f000e080180060011900e0811900d3ff3b0074
:10140000033e2c00f7ff370007f0a200bffe3700b5
:10141000881f7800000478005001be004000be0024
:10142000040040008580480006014900878149008a
:10143000009cbe000294be000400e1000588e100ab
:101440000690e1000798e1000200310068004400c6
:101450001008e8004f04780000000600f4874700f9
:10146000889fbe008a9fbe008c9fbe008e1f7800a2
:101470000205be000004be00d4b79f00e5b79f0080
:10148000f6b79f0087bf9f000000eb00c0b79f002a
:10149000b0b79f00a0b79f0090b79f0080b79f0094
:1014a0000d042000bfb097004fb09700000140002e
:1014b0000000e0000f003d004f08de00000071005a
:1014c000c0b79f009e00070001003d0012002000f1
:1014d000a100070001003d0012002000a600070047
:1014e000b1000700b60007000f004000c8ff07006a
:1014f000220037004f08de0000067100ccb79f00c5
:101500008f00070001003d0012002000920007003c
:1015100001003d001200200097000700a200070014
:101520000fb297009fb297002fb39700bfb39700f9
:10153000a90007000000520081805a0002015b00f0
:1015400083815b0080b79f0091b79f00a2b79f0087
:10155000b3b79f000007eb009f0007000020e100e9
:1015600001a8e10002b0e10003b8e1000100310090
:101570001e0020000e005600c0b79f004fb297001b
:101580000400e000070035001000200001002000ea
:101590006011b80008047000898470000a057100a9
:1015a0008b8571008d06e900beff3a000400e00063
:1015b00003003d00820007000f00400094ff070079
:1015c0004fa897000000e00004003a000fb4970015
:1015d0009fb497002fb59700bfb597009400070000
:1015e0004f0778004f06be004f05be004f04be00f7
:1015f0004f01b10000000600881f7800180020008d
:10160000881f780095ff07008f87e9004f04780056
:1016100000000600801feb0090ff07008f87e900a5
:1016200000000600889fbe008a9fbe008c1f7800c5
:101630006e00070007003d0073000700e00f5b002d
:10164000e08f5b0007003d00320007000006eb0062
:10165000040037003400070002003d002a000700a4
:101660001c00200072000700e3ff07000203be0019
:101670000002be000c00e000010032002200070062
:101680000400be000601be004f0678004f05be00f4
:101690004f04be0000000600889fbe008a9fbe0067
:1016a0008c1f78005100070005003d005600070020
:1016b000e00f5b00e08f5b0006003d000400370098
:1016c0001900070003003d006000b8006011b80079
:1016d0001000070056000700ceff07000203be00ff
:1016e0000002be000c00e00001003200060007000e
:1016f0000400be000601be004f0678004f05be0084
:101700004f04be00000006006000b8006011b80081
:10171000000037000402500085825800060359007b
:1017200087835900000006000006eb00e00f52001e
:10173000e08f5a00e00f5b00e08f5b0000000600c6
:101740000180400090b79f000001eb008fb0970030
:101750000100e000000006000200700090b79f004a
:101760000180400080b79f000001eb00ffa89700b8
:101770000100e000000006000200700080b79f003a
:10178000018040006faa9700cf20de0001007000aa
:10179000f0af9f0004024200250007004f18de0052
:1017a0000002720000000600e4af9f00080444003d
:1017b00089844c000a054d008b854d000000060011
:1017c0003fb29700cfb297005fb39700efb3970097
:1017d00000fe2f00000006003fb09700cfb097003a
:1017e0005fb19700efb19700000006000205be0050
:1017f0000004be00e00f5000e08f5800e00f5900d9
:10180000e08f5900000006006000b8006011b800c9
:1018100008045000898458000a0559008b85590036
:101820001c002000e00f5200e08f5a00000006006c
:101830000800be000a01be00000006006804470060
:101840000294be000094be00fc0447008694be00d3
:101850008494be0009007800660007000800780044
:101860006400070099007800814f70000b003b0076
:101870000800be00930007004f00b10003003700ce
:10188000f3ff2700f2ff2f006110b9004f06be00e2
:101890004f05be004f04be000080fa0000000600a5
:1018a0001800200057002000080453000d003d00e0
:1018b0000600200097fc2f000740e1001e003400c6
:1018c00084827200610260008301d1000281d30032
:1018d0008180d3000080d3000804e800f8ff3a00bc
:1018e00047002000610460000504740004046400e3
:1018f0000d00320061004000e080480060014900b6
:10190000e081490003b8a500070032000603e800a3
:101910006538e10004003a008301d1000281d30060
:101920008180d3000080d300f87f20000830e100e0
:1019300003003500080378006000b8006011b800ab
:101940004433dd00f300b2008301730000000600a1
:10195000889fbe008a9fbe008c9fbe000404be000c
:101960000605be00809fbe00829fbe006300070088
:10197000040678000800be000a01be005f000700f0
:10198000840678004f03be004f02be008d4f7600e4
:101990007fb0970013003300f0ff2f008b8f6b0098
:1019a00006003b000d0666000c00a7000a00370089
:1019b00007f0a600100020000a003700880f520030
:1019c000898f5a008a0f5b008b8f5b000300390000
:1019d0001000200001003e000000200007f0a700da
:1019e0000000ea004f06be004f05be004f04be00d7
:1019f00000000600800078005002be005003be00c8
:101a00004439de00f700b200f37f200003016100db
:101a1000090032000218e10016003a008501720048
:101a200083017300838173000008200015003a00d1
:101a3000400020001300370085017200830173000d
:101a40008381730005003a0004a8be0006a8be000a
:101a5000100020000b0037000201e90004024200e0
:101a600085824a0006034b0087834b000748a3008a
:101a7000f9ff32000740a00004a8be0006a8be007f
:101a800020002000800098009200980000000600ce
:101a90000003be0037fc07006220e10002003200b4
:101aa0000600be0005000500e507b100f107b20021
:101ab00004f023008480700007f0a70001f0a0006c
:101ac00024000500e48240001078a30007003200e3
:101ad000640240001178a3003400be001401be006f
:101ae000040032000330a700000006003500be00ed
:101af0001501be000330a0000000060005ff27000e
:101b000005826100070032000428e1000100320074
:101b1000240005000600070001003a00440005000b
:101b20000408050002000700f9ff3a001400050050
:101b30006f8261008102700085027100850272006f
:101b4000000006000c00fa00889fbe000004780028
:101b5000cfb09700f0ff2700d0bf9f008004eb00bc
:101b600099bf9f0088bf9f00a8bf9f00200c200046
:101b7000b0bf9f0078815700708057006500070054
:101b80000fb89700094878000fb897000804500074
:101b9000080078004f04be000080fa000000060034
:101ba000800078003004e000feff3a0001005000a1
:101bb0000000e90000000600889fbe008a1f780030
:101bc000804078000004e00021003d008040ea00f1
:101bd000d0c6b30080cf5000090034008104fb0060
:101be00042062000110009008204d800000178009c
:101bf000010078004311dd002a8620001f00370015
:101c00000100fb002386200039003700a2002000dd
:101c1000110009000200d8000001780001007800de
:101c20004311dd00030141004300dd0003004000db
:101c30003002be002003be0042209000d22090005f
:101c4000f221900062219000dffb07002e00370098
:101c5000d0c6b30080cf5000230034008104fb00c5
:101c600042062000110009008204d800000178001b
:101c7000010078004311dd002a9120000a01410093
:101c8000a8002000110009000800d8004300dd0072
:101c90000a00400040229000d02290006023900073
:101ca000f02390000288900092889000b289900002
:101cb00022899000c4fb0700801f78000102780091
:101cc000110009008804d8000102fd004f007800cf
:101cd0000402fb004322dd000a0242005403be005e
:101ce0004402be00d8ff37000100fb002391200012
:101cf000eacf5000c5ff3c004300dd000300400078
:101d00005001be004000be004f0578004f04be00e9
:101d1000000006004f03b000889fbe008a9fbe00ef
:101d20008c9fbe008e1f7800e0b79f00f1b79f0028
:101d300082bf9f000000eb00b0b79f006704370030
:101d40008001eb0050c2b30080cf50000900320088
:101d50000100fb00efb097006d040700e10f4000a9
:101d60005e043200bfb097008100e800b1b79f0069
:101d70005a0437007fb1970092407800d0c2b30078
:101d800080cf50000c00320007003c006d40500036
:101d900080cf50000d0032006b40400080cf5000db
:101da00019003a000e00370000c3b30080cf500086
:101db00015003a000f0037000330a0007fb29700f3
:101dc0000402e800f4b79f00eaff37000300a00018
:101dd000ffb297008502e800f5b79f00e5ff3700e6
:101de0000310a0007fb697000c06e800fcb79f0028
:101df000e0ff37000320a0007fb097000000e8005c
:101e0000f0b79f00dbff37000318a300010032008a
:101e10000300a1000338a300010032000320a10049
:101e20000100fb0002fd2f0002004000e90f5000fe
:101e300010003e008000eb00c1a79f000202780066
:101e40004fa197006a10b900ffb297001501fb007f
:101e50000001410004014100c2a79f005500fb00a2
:101e6000f5b79f0004004000e90f50000d003e0050
:101e7000f3ff37000006eb00cca79f00a0c2b30021
:101e800080cf500007003a000fb89700c0007800dc
:101e900080bf9f00c1a79f007fb197000201e800ab
:101ea000f2b79f00e0c2b3007fb29700944f1000da
:101eb00021003a00830678000de0a0008400e800cd
:101ec00064405000914f100004003200f1b79f00b1
:101ed0008002eb00c5b79f00100037000fbe9700cf
:101ee0004c0078008cbf9f00c0b79f00ffb09700e8
:101ef0008180e800f1b79f00130037004fb29700d0
:101f00006a20b9000000410003004000c0b79f00f4
:101f1000ffb297008502e800f5b79f007fb69700f3
:101f20001c01fb0003fd2f0003004100e90f5000de
:101f3000f2ff360004003700830678000dc0a000d1
:101f40000000eb00c0b79f007fb19700b24078005f
:101f5000f2b79f0081c79f00c0c6b30080cf50007a
:101f60001400320009003c006940500080cf50004e
:101f7000650032006340400080cf50001300320003
:101f80000104e000db0332007e00370050c7b300dd
:101f900080cf50007f0032006340400080cf50006f
:101fa0000d0032006540500080cf500075003a00af
:101fb0000c003700000028000d48a30001003a0083
:101fc0000001200080867600dfff37000d077800d3
:101fd0000ea0a000710037000d0778000e70a00061
:101fe0006e0037008fb997004300780083bf9f00d1
:101ff000000478000000e00001003a0088a82000fa
:102000008004eb00010037008104e80089007800bb
:10201000088044001004e000fbff3a004fb2970034
:102020000400e00003003200890f5200010031007b
:10203000840478000007eb00cfa29700898f52003c
:1020400001003600098752004368de00e1066000a7
:1020500019003a000d06780009003700efb097002c
:1020600000022000aa030700e10f40000300320035
:102070003fb097000000e800b0b79f000c06e800f2
:102080008e0f5600f5ff3a000087eb000a0037007c
:10209000880078003100fb0001047800efb0970061
:1020a0009b030700e10f400003003200bfb0970020
:1020b0008100e800b1b79f000900e90080047800c2
:1020c000e10f4000f2ff3a000006eb000d00e000d7
:1020d0000a003a0081033700efb0970000022000a9
:1020e0008b030700e10f4000030032003fb197006f
:1020f0000201e800b2b79f000c06e8008e0f560000
:10210000f5ff3a00750337008fb997004300780058
:1021100083bf9f00cf80de0001017800820178003c
:102120000205be000004be000203be000002be00a5
:102130004822de00482edd000402760084c79f009e
:102140000d48a3000a0032000404e0000800320039
:10215000e14f42000600320011fc2f0001804700d1
:102160000448780018409800290020000200370039
:1021700090c79f001900200012fc2f000284470026
:10218000a6ff370003fc2f0003844700190020003e
:10219000a2ff37000d0778000e0cb300007020007e
:1021a00000026700270232000ec8a30002003200be
:1021b00064002000c4b79f000e48a3000500320051
:1021c0000fba97004401be004400be0084bf9f00c8
:1021d000040037008fba97004500be0085bf9f00fe
:1021e000eefa0700f0af9f0081b79f0092b79f0003
:1021f000a3b79f006022b8006033b8007fa89700a3
:102200008fb097001fb19700afb1970002fb070096
:102210000000e0000a003d007fa897008fb0970003
:102220001fb19700afb1970003f0a200f0af9f007d
:1022300081b79f0092b79f00a3b79f003e00b300f5
:102240000000eb00a0a79f006022b8006033b80038
:102250007fa897008fb097001fb19700afb197008c
:10226000f2fa07000000e000340032007fa8970077
:102270008fb097001fb19700afb19700f0fa070039
:1022800043fc2f000381470018fb07002fa0970095
:102290000000e9006300b900a2002000110009005d
:1022a0000200d8008000fd00a1a79f000100e0000f
:1022b00002003d000100e900a0a79f002fa49700a5
:1022c0000840ea003cfe07007faa97008fb2970003
:1022d0001fb39700afb397003bfa0700b0af9f0062
:1022e000c1af9f00d2af9f00e3af9f006022b80054
:1022f0000600200007ff2300c7fa07000000e000e7
:1023000002003d000800e9000b0037006022b80021
:1023100006002000470224003fa89700cfa897009e
:102320005fa99700efa99700f3fa07000000e0000b
:10233000020035000800e800a0a79f004fb29700f8
:10234000f80f520057003c00d0c6b300804f520037
:10235000290036000485fb00420620001100090018
:102360000285d80000017800010478004311dd00e7
:102370002b8620000b0141006022b80006002000df
:1023800007fe23000288900092889000b289900096
:10239000228990000cfa0700a9002000809fbe004f
:1023a000110009000984d800000478004f00be0025
:1023b0004344dd000b04440048229000d8229000e2
:1023c00068239000f8239000fff90700801f780031
:1023d00001027800110009000985d8000102fd0002
:1023e0004f0078004322dd000b0242005403be0080
:1023f0004402be001f0037000480fb002986200035
:10240000ea4f520014003600a2002000110009001b
:102410000280d80000017800010478004311dd003b
:10242000090141006022b8000600200007fe2300d9
:1024300042209000d2209000f22190006221900072
:10244000e1f907004344dd00090444003802be00fe
:102450002803be00070037004300dd0009004000ec
:102460006022b8000600200007fe23005001be00d5
:102470004000be00d4f907000002be000203be0007
:102480007fa897008fb097001fb19700afb197005a
:102490009efa0700f0af9f0081b79f0092b79f00a0
:1024a000a3b79f002fa49700e90f540015003c002c
:1024b0006022b8006033b8007fa897008fb0970003
:1024c0001fb19700afb1970058fa07000000e00075
:1024d000320032007fa897008fb097001fb197009d
:1024e000afb1970006fb0700e00f5000e08f5800e7
:1024f000e00f5900e08f590028003a00e10f540026
:10250000260034000400200005002e00b6e0220062
:10251000170124003fa89700cfa897005fa9970054
:10252000efa997003cfa07000000e00002003d0020
:10253000730054000100370072005400a0a79f00f0
:102540004fc097009cfd0700b0af9f00c1af9f0038
:10255000d2af9f00e3af9f000002be000203be00a7
:102560007fa897008fb097001fb19700afb1970079
:1025700014fb0700e2fa07000205be000004be00db
:102580006000b8006011b800d0a79f00e1a79f00cd
:10259000f2a79f0083af9f002e0037007fa897000f
:1025a0008fb097001fb19700afb19700d4fa070022
:1025b0000205be000004be00e00f5000e08f58008e
:1025c000e00f5900e08f59000200350057fb07006b
:1025d0001300370010002000010020006011b80037
:1025e00008006000898060000a0161008b81610041
:1025f0008b03d1000a83d3008982d3000882d300e1
:1026000000007200818072000201730083817300f8
:1026100046fb07000002be000203be003bfa0700b3
:102620000002be000203be007fa897008fb0970093
:102630001fb19700afb1970073fb0700d0a79f00b1
:10264000e1a79f00f2a79f0083af9f000000eb006f
:10265000a0a79f0014c0b300259c20000b003700ea
:102660000400fb004300dd00050040005001be00f7
:102670004000be000040e10001c8e10002d0e100de
:1026800003d8e100030039000442e800f44f52008f
:10269000f3ff3a0084c79f000400fb00cfb097000f
:1026a00000804000afa09700010040004fa19700bc
:1026b00080065100cfb197000300e0000100320016
:1026c0008d06e90063006700010032008d06e90015
:1026d0000e28a30026003200e10067000e18a300b8
:1026e0000c003200d00220000100e00001003a009e
:1026f0000080e900efb0970005020700e10f4000fd
:10270000180032003fb297000402e800b4b79f00ff
:10271000140037000100e00012003200efb0970013
:1027200000022000fa010700e10f40000d00320016
:10273000bfb297008502e800b5b79f0009003700d7
:10274000efb0970000032000f1010700e10f400007
:10275000030032003fb697000c06e800bcb79f00ac
:102760008d06e9000d00e000f5ff3c003d0037005c
:102770000e38a3000a0032000b003700efb09700bc
:1027800000022000e2010700e10f400003003200d8
:102790003fb097000000e800b0b79f008d06e90049
:1027a0000d00e000f5ff3c00e10067000e18a300fb
:1027b0000c003200d00220000100e00001003a00cd
:1027c0000080e900efb09700d1010700e10f400061
:1027d00024003200bfb097008100e800b1b79f002d
:1027e000200037000100e0001e003200efb097002b
:1027f00000022000c6010700e10f4000190032006e
:102800003fb197000201e800b2b79f001500370002
:102810000000fb004300dd00219c2000010040007f
:102820003002be002003be000800be000a01be0048
:1028300071fb0700a4002000050020006033b800f1
:1028400074fb07000003b000efb09700b001070071
:10285000e10f400003003200bfb197008301e800a0
:10286000b3b79f000fc297000440e90080c79f00e4
:10287000e14f4000e6ff3a000b003700efb0970051
:1028800000032000a2010700e10f40000300320016
:10289000bfb297008502e800b5b79f002fa0970050
:1028a0000000e900a0a79f002fa097000000e00013
:1028b000f2ff3c004fb6970020c1b300f20f560064
:1028c00001003c000fe8970080c79f008fc0970071
:1028d0000100fb004fb197000000510090af9f0036
:1028e0000104e00008003200efb09700e002200091
:1028f00087010700e10f400003003200bfb19700dd
:102900008301e800b3b79f000fc09700aafc07003f
:102910000002be000203be005fa09700efa0970078
:102920007fa197008fa99700a7f80700f4f9070087
:102930001e0037000000fb004300dd002c9c20003f
:102940000c0040003002be002003be000800be00a4
:102950000a01be0028fb0700a4002000050020009b
:102960006033b8002bfb07000003b000efb0970006
:1029700067010700e10f4000030032003fb29700fb
:102980000402e800b4b79f008fc297000500fb0067
:102990004300dd000c0040003002be002003be00fa
:1029a0000800be000a01be001afb07000205be00b7
:1029b0000004be000fc697000c40e90080c79f00ce
:1029c000e14f4000dbff3a000006eb000900370052
:1029d000efb09700000320004d010700e10f400019
:1029e000030032003fb097000000e800b0b79f003e
:1029f0000c06e8009fa89700810f5600f4ff3a00ec
:102a00000e38a300350132000d00e0003301340020
:102a10000006eb00efb09700000220003c01070029
:102a2000e10f4000030032003fb197000201e800cf
:102a3000b2b79f000c06e8008d0f56002701320048
:102a4000f4ff37000e00e00005003d008fb997004d
:102a50004305be004304be0083bf9f001100370042
:102a60000e48a300080032008fba97004500be0050
:102a700085bf9f0004017800840178000205be0034
:102a80000004be00070037000fbe97004c0078001e
:102a90008cbf9f0000047800090020000a0020007d
:102aa0000b0020004fb097000000e00007003a0044
:102ab000e00f5400e08f5c00e00f5d00e08f5d00f0
:102ac00002003a0011002000c1b79f000e017800fb
:102ad000020cb200d2b79f0000082000800f510006
:102ae00014003200000c2000800f510025003a0035
:102af00014c0b300259c20000b0037000400fb002d
:102b00004300dd00050040005001be004000be0053
:102b10000040e10001c8e10002d0e10003d8e1007b
:102b2000170039000442e800f44f5200f3ff3a0066
:102b30001300370000012000010020006011b800e0
:102b400014c0b3000040e10001c8e10002d0e10080
:102b500003d8e1000a003900450020000000d00041
:102b60008180d2000281d2008381d2008502e900f7
:102b7000faff3a000442e800f04f5200f1ff3a0039
:102b800084c79f000fc697000c00fb00cfb09700d2
:102b9000810f500002003d0081c79f0004003700f4
:102ba0004fb19700800f510001003d00c0b79f005a
:102bb000cfa197000300e00004003200630067002b
:102bc000020032008301e900c3a79f000ee8a300c2
:102bd0000b0032004fa29700cfb29700850f520032
:102be00003003c000006eb00cca79f000400370068
:102bf0004fa09700cfb0970001005000c0a79f00e2
:102c00000fc197000200fb008001eb00b3a79f00fb
:102c10004fa29700800f52000200340000005200c3
:102c2000b0a79f000e28a30034003200e100670027
:102c30000e18a3000c003200d00220000100e000ba
:102c400001003a000080e900efb09700b0000700f3
:102c5000e10f40000e003200bfb297008502e8008d
:102c6000b5b79f000a0037000100e00008003200fd
:102c7000efb0970000022000a5000700e10f400020
:102c8000030032003fb697000c06e800bcb79f0077
:102c90003fa097000000e0000f0032000006eb00ac
:102ca000efb097000003200099000700e10f4000fb
:102cb00003003200bfb097008100e800b1b79f0069
:102cc0000c06e8003fa19700820f5600f4ff3a007f
:102cd0008001eb00b3a79f004fb297004320dd00b7
:102ce000a19b2000810640004220dd0064065000c8
:102cf0008002eb00a5af9f00620037003fa697005f
:102d00000c00e00011003200680067000f003a007c
:102d100000067800efb09700000220007c0007005a
:102d2000e10f4000030032003fb097000000e800d0
:102d3000b0b79f000c06e800bfa09700810f5600b7
:102d4000f4ff3a000001eb00b2a79f00e10067002a
:102d50000e18a3000c003200d00220000100e00099
:102d600001003a000080e900efb09700680007001a
:102d7000e10f4000d8ff3200bfb197008301e800a7
:102d8000b3b79f00d4ff37000100e000d2ff32004c
:102d9000efb09700000220005d000700e10f400047
:102da000cdff32003fb297000402e800b4b79f00a5
:102db000c9ff370000082000dfb29700808f520063
:102dc00010003200000c2000808f52001f003a00db
:102dd0003d02be002d03be000800be000a01be0079
:102de00005fa0700a4002000050020006033b800a9
:102df00008fa070004c3b3000442400084c79f00e0
:102e00001200370014002000050020006033b800d5
:102e10000c0078000000e900050033000402d00037
:102e20008582d2000683d2008783d200f9ff370063
:102e30000800be000a01be00eff907006f00600045
:102e4000f4a820006442780084c79f008fc09700d8
:102e50000100fb00efb097002d000700e10f4000dc
:102e6000030032003fb197000201e800b2b79f00b3
:102e7000afa997008301e800a3af9f00e886560042
:102e8000640656002faa9700cfb29700850f520014
:102e9000c8ff3a000e38a300100032003fa697008a
:102ea0000c00e0000d0034000006eb00efb09700ce
:102eb0000002200016000700e10f4000030032006e
:102ec0003fb097000000e800b0b79f000c06e80094
:102ed000bfa09700810f5600f4ff3a007fb1970022
:102ee000b2407800f2b79f0081c79f000104e00064
:102ef00093fb3a003fb097004f0778004f06be00a3
:102f00004f05be004f04be004f03b1000000060095
:102f1000889fbe000001780001047800b100900095
:102f20000118a3003d0032000198a30003003a00fd
:102f3000180090000000e00038003a000190a00066
:102f40003104980082047800f90fb2001800900054
:102f50000000e00002003a0028009000000c780019
:102f6000ea8f540006003a00380090000078a30071
:102f700003003a0088007800d0002000e4ff07003a
:102f80009800900058009000808f50000b00320095
:102f90000100e80010049800180078000958780033
:102fa000000c780011c0b30040aa2000014878004e
:102fb000ea8f5400060032001900370088007800bc
:102fc00009407800190007008004780014003700d9
:102fd000380090000088a300110032001801900012
:102fe000a8009000480090004ff50700980090005e
:102ff000810f500004003200380090000003b3003d
:10300000300498008084eb000000eb00100498006e
:1030100028009000000c7800010037008084eb004d
:10302000090078004f04be00000006000200fa000c
:10303000889fbe00a0ff9f0001047800b1009000af
:10304000810478000904b200020032000000fb0095
:10305000360037000118a30005003a000103b30051
:1030600031049800190498000080eb002f0037000d
:10307000580090000000e00006003a004800900070
:1030800012002000e680570027f507001904980079
:1030900024003700280090000000e00008003a00fb
:1030a00000aa200020049800000c780020002000d6
:1030b00050049800100498000130a00031049800da
:1030c00018019000a80090004800900016f5070035
:1030d00028009000000c78000080eb00100498009d
:1030e00018007800aff8970001587800000c7800bd
:1030f0002ff89700ea4f50000a003a00380090007d
:103100000088a3000700320018019000a80090007a
:103110004800900004f5070019049800a8009000ea
:10312000010c7800aff897000100fb004f04be00cf
:083130000080fa000000060017
:020000040000fa
:0200000401f009
:04000800ffff0000f6
:020000040000fa
:0200000401f009
:04000c00f8ff0000f9
:020000040000fa
:0200000401f009
:040010007fff00006e
:020000040000fa
:0200000401f009
:040014007fff00006a
:020000040000fa
:0200000401f009
:04001800f8ff0000ed
:020000040000fa
:1000080090020000900200009002000090020000a0
:100018009002000090020000900200009002000090
:100028009002000090020000900200009002000080
:100038009002000090020000900200009002000070
:100048009002000090020000900200009002000060
:100058009002000090020000900200009002000050
:100068009002000090020000900200009002000040
:100078009002000090020000900200009002000030
:100088009002000090020000900200009002000020
:100098009002000090020000c41d0000d41d000062
:1000a8009002000090020000900200009002000000
:1000b80090020000900200009002000090020000f0
:1000c80090020000900200009002000090020000e0
:1000d80090020000900200009002000090020000d0
:1000e80090020000900200009002000090020000c0
:1000f80090020000900200009002000090020000b0
:10010800900200009002000090020000900200009f
:10011800900200009002000090020000900200008f
:10012800900200009002000090020000900200007f
:10013800900200009002000090020000900200006f
:10014800900200009002000090020000900200005f
:10015800900200009002000090020000900200004f
:10016800900200009002000090020000900200003f
:10017800900200009002000090020000900200002f
:10018800900200009002000090020000900200001f
:10019800900200009002000090020000900200000f
:1001a80090020000900200009002000090020000ff
:1001b80090020000900200009002000090020000ef
:1001c80090020000900200009002000090020000df
:1001d80090020000900200009002000090020000cf
:1001e80090020000900200009002000090020000bf
:0801f8009002000090020000db
:020000040000fa
:10020800900200009002000090020000900200009e
:10021800900200009002000090020000900200008e
:10022800900200009002000090020000900200007e
:10023800900200009002000090020000900200006e
:10024800900200009002000090020000900200005e
:10025800900200009002000090020000900200004e
:10026800900200009002000090020000900200003e
:10027800900200009002000090020000900200002e
:10028800900200009002000090020000900200001e
:100298009002000090020000c41d0000d41d000060
:1002a80090020000900200009002000090020000fe
:1002b80090020000900200009002000090020000ee
:1002c80090020000900200009002000090020000de
:1002d80090020000900200009002000090020000ce
:1002e80090020000900200009002000090020000be
:1002f80090020000900200009002000090020000ae
:10030800900200009002000090020000900200009d
:10031800900200009002000090020000900200008d
:10032800900200009002000090020000900200007d
:10033800900200009002000090020000900200006d
:10034800900200009002000090020000900200005d
:10035800900200009002000090020000900200004d
:10036800900200009002000090020000900200003d
:10037800900200009002000090020000900200002d
:10038800900200009002000090020000900200001d
:10039800900200009002000090020000900200000d
:1003a80090020000900200009002000090020000fd
:1003b80090020000900200009002000090020000ed
:1003c80090020000900200009002000090020000dd
:1003d80090020000900200009002000090020000cd
:1003e80090020000900200009002000090020000bd
:0803f8009002000090020000d9
:020000040000fa
:103138000d0a0000005600006f6c0000746100006a
:1031480067650000203100003a20000025300000ab
:103158002e32000066560000005600006f6c00001a
:103168007461000067650000203200003a2000000a
:10317800253000002e320000665600000056000080
:103188006f6c000074610000676500002033000068
:103198003a200000253000002e320000665600005c
:1031a800005600006f6c0000746100006765000045
:1031b800203400003a200000253000002e320000a4
:1031c8006656000000450000445000002032000010
:1031d80030310000330000004d6900006c650000cc
:1031e800537400006f6e000065200000330000007b
:1031f80042610000747400006572000079200000cc
:103208003120000046410000554c00005459000090
:1032180000420000617400007465000072790000cb
:103228002032000020460000415500004c540000a8
:1032380059000000426100007474000065720000cb
:10324800792000003320000046410000554c000062
:1032580054590000004200006174000074650000c9
:10326800727900002034000020460000415500001b
:103278004c540000590000004d6f000064750000b8
:103288006c65000020420000616c0000616e000067
:08329800636500006400000002
:020000040000fa
:1032a0000000fa0060022000303a880044c7bf00e6
:1032b000f043b20044e7b700417420009140780029
:1032c00000ceb30000c0600044e7b7000000eb0090
:1032d000403a880040a7a900120020008107200082
:1032e000a0092000337420008149780080497800cb
:1032f000824978001200200061042000700520003f
:103300002374200081497800804978008249780040
:1033100043c7bf000047b200f04f5000fcff3a0027
:1033200042c7bf000042b2000004e000fcff3200d0
:103330000080fa00000006000000fa0031e2a90057
:1033400031a2a9003182a9003162a9001123200015
:1033500091407800c0cfb30000c0600031e2b700f8
:1033600030e2a90030c2a90030a2a9003082a90031
:103370003062a900012320009140780090cfb30073
:1033800000c0600030e2b7003002a900000f20004a
:10339000c011880033e2a90033c2a90033a2a900fa
:1033a0003362a9003342a9003322a9003302a900e5
:1033b00032c2bf00f043b20032e2b70032a2a9002d
:1033c0003282a9003262a9003242a9003222a90049
:1033d0003202a900004024009005880087e0a9007f
:1033e00097e0a80087c0a90097c0a80031e2a80014
:1033f0003342a8000080fa00000006000200fa0034
:10340000000f7800050037001e007800104078009b
:103410000000fb00070007001e0fe8001e007800f8
:10342000104078000004e000f7ff3a000080fa0046
:10343000000006000200fa00004f780033c2bf000f
:10344000624060000004e000fcff3a001e00fb0048
:10345000a01188000080fa00000006000000fa00b9
:10346000c0892900e5ff07000080fa00000006007f
:103470000200fa00000f78001e0078005019880042
:10348000800e2000001988000000eb0080198800e1
:10349000f0ff21002019880000302000101988005a
:1034a00021e3a8000080fa00000006000200fa00f4
:1034b000000f78001e0078007f4060007f416000b0
:1034c000813220009140780000ceb30000c060003f
:1034d0000240700028e3b70085a0a9002003a900de
:1034e0002023a80085c0bf000042b2000004e00015
:1034f000fcff32002043a900001880000080fa0081
:10350000000006000000fa00000c2200901688005f
:103510002ae3a80000082000001688000040eb0005
:1035200003e8b70003c8bf0002e8b70002c8bf0045
:1035300001e8b70001c8bf0000e8b700000f200095
:10354000101688000000eb00101688000080fa00ba
:10355000000006000000fa00401f200009030700d9
:1035600030002000d1ff0700cf80de0025f40700e7
:103570002042880031428800204280003142800091
:10358000020020000348240049f4070032332300de
:103590003305240088f4070002cc2e00d312240047
:1035a00085f40700325e2a0033102400b6f40700c9
:1035b000a0418800b1418800401f2000f1020700af
:1035c0000000eb00b9ff0700cf80de000df407001c
:1035d00040428800514288004042800051428000b1
:1035e000020020000348240031f407003233230096
:1035f0003305240070f40700723d2a0023132400d1
:103600006df40700325e2a00331024009ef4070098
:10361000c0418800d1418800401f2000d902070026
:1036200010002000a1ff0700cf80de00f5f30700a7
:1036300060428800714288006042800071428000d0
:10364000020020000348240019f40700323323004d
:103650003305240058f40700d2cc2c008313240037
:1036600055f40700325e2a003310240086f4070068
:10367000e0418800f1418800401f2000c10207009e
:103680008000200089ff0700cf80de00ddf3070007
:1036900080428800914288008042800091428000f0
:1036a000020020000348240001f407003233230005
:1036b0003305240040f4070082162900b3122400c9
:1036c0003df40700325e2a00331024006ef4070038
:1036d00000428800114288000080fa0000000600c5
:1036e0000000fa00d4c2bf000044b2000004e000b1
:1036f0001d003a00d4c2bf000044b2000004e00044
:10370000fcff320000c8bf000004e00018003a00cf
:1037100010c0b30000e8b700803e20009902070007
:1037200010c0b300570207008aff0700a0418000c5
:10373000b1418000809fbe00f0892900801f780081
:1037400040802000fff80700e687570040802000f7
:1037500079020700850007004080200027ff07004e
:103760003eff0700020037000040eb0000e8b70012
:10377000d4c2bf0001c8b300014060000004e000f3
:103780001c003a00d4c2bf0001c8b3000140600071
:103790000004e000fbff320003c8bf000004e000ab
:1037a00016003a0010c0b30003e8b70010c0b30021
:1037b0003402070067ff0700c0418000d14180004c
:1037c000809fbe00108b2900801f78004080200061
:1037d000dcf80700e687570040802000560207000b
:1037e000620007004080200004ff07001bff070065
:1037f000020037000040eb0003e8b700c2c2bf0080
:1038000001c8b300014060000004e0001c003a0061
:10381000c2c2bf0001c8b300014060000004e00064
:10382000fbff320002c8bf000004e00016003a00af
:1038300010c0b30002e8b70010c0b30011020700c7
:1038400044ff0700e0418000f1418000809fbe00fe
:10385000308c2900801f780040802000b9f80700d4
:10386000e687570040802000330207003f00070032
:1038700040802000e1fe0700f8fe0700020037004c
:103880000040eb0002e8b700d5c2bf000042b20022
:103890000004e0001d003a00d5c2bf000042b200a3
:1038a0000004e000fcff320001c8bf000004e0009b
:1038b00018003a0010c0b30001e8b70010c0b30010
:1038c000f001070023ff0700004280001142800042
:1038d000809fbe00508d2900801f7800408020000e
:1038e00098f80700e6875700408020001202070082
:1038f0001e00070040802000c0fe0700c08120009d
:10390000befe0700d5fe0700020037000040eb00b6
:1039100001e8b7000080fa00000006000000fa008d
:103920005ffe070084fe0700f6fe07008f01070018
:1039300010c0b300d3010700708e2900fe010700fc
:1039400000ccb300cf010700008f2900fa01070067
:10395000b0102000c6fe07002ae3a800b010200027
:10396000301688005eff0700feff37000200fa00f5
:10397000e0428000f1428000d2cc2c00c3f423004e
:103980008df30700a2418000b34180001cf40700c2
:103990000000e0000b003c00e0428000f1428000ab
:1039a000a299290093f9230083f30700c241800004
:1039b000d341800014f407000000e000010035004e
:1039c0000700370000ccb300ae010700c08f29000c
:1039d000d901070010002000101688006800370089
:1039e000e0428000f1428000d2cc2c00c3f42300de
:1039f00071f30700c2418000d341800000f407004a
:103a00000000e0000b003c00e0428000f14280003a
:103a1000a299290093f9230067f30700c2418000af
:103a2000d3418000f8f307000000e00001003500fa
:103a30000700370000ccb30092010700d0902900a6
:103a4000bd01070030002000101688004c00370030
:103a5000e0428000f1428000d2cc2c00c3f423006d
:103a600055f30700e2418000f3418000e4f30700d2
:103a70000000e0000b003c00e0428000f1428000ca
:103a8000a299290093f923004bf30700e24180003b
:103a9000f3418000dcf307000000e0000100350086
:103aa0000700370000ccb30076010700e091290041
:103ab000a1010700700020001016880030003700b8
:103ac000e0428000f1428000d2cc2c00c3f42300fd
:103ad00039f3070002428000134280000042eb00ed
:103ae00014479800c6f307000000e00001003c0006
:103af0000200370010c0b30010479800e042800079
:103b0000f1428000a299290093f923002af30700cb
:103b100002428000134280000042eb00044f780014
:103b2000b9f307000000e000010035000200370093
:103b300010c0b300004f78009e4090001e417800f6
:103b400002c070000004e0000700320000ccb300a7
:103b50004c010700f092290077010700f0002000d7
:103b6000101688000600370000ccb300450107009e
:103b700000942900700107000000eb001016880077
:103b80000080fa0000000600801f78000000fa00a4
:103b9000b01180002016880087c0a9000080fa00bc
:103ba0004f007800004006000000fa0087e0a900fe
:083bb0000080fa00004006004d
:020000040000fa
:103bb800340800002c000000020000000000000093
:103bc80000000000000000000000000000000000ed
:103bd80000000000000000000000000000000000dd
:103be80000000000000000000000000000000000cd
:103bf80000cdcc0084400000000800003400000024
:103c08000000000060080000020000000000000042
:103c1800c2090000a000000002000000010000002e
:103c28000000000000000a00000000000000000082
:103c3800006400000000000000000000e80300002d
:103c48000000000000001000270000000000000035
:103c580000a08600010000000000000040420f00a4
:103c6800000000000000800096980000000000009e
:103c78000000e100f50500000000000000ca9a00fd
:103c88003b00000000000000e40b540002000000ac
:103c98000000e80076481700000000000010a500aa
:103ca800d4e8000000000000a0724e0018090000cf
:103cb800000040007a10f3005a0000000080c6009f
:103cc800a47e8d000300000000c16f00f28623006f
:103cd800000000008a5d7800456301000000640070
:103ce800a7b3b600e00d000000e889000423c70070
:103cf8008a000000880a0000180000000200000086
:103d0800286e75006c6c29000030310032333400a5
:103d18003536370038396100626364006566000033
:103d280062080000600100000200000000000000be
:103d380000000000f03f00000000a0009999b900c1
:103d48003f0000000040e1007a843f0000000000ce
:103d5800e04d6200503f00000000e000e2361a002b
:103d68003f0000000080b500f8e43e0000000000bd
:103d7800a0f7c600b03e00000000a000f2d77a000d
:103d88003e00000000e08e0079453e000000000083
:103d9800e00b2e00113e00000000e000df7cdb009d
:103da8003d0000000000a1009cc73b00000000008f
:103db800004c4800b439000000000000206ca1004d
:103dc80037000000000000000000000000000000b4
:103dd80000000000000000000000000000000000db
:103de80000000000000000000000000000000000cb
:103df80000000000000000000000000000000000bb
:103e080000000000000000000000000000000000aa
:103e18000000000000000000000000000000f000aa
:103e28003f000000000000000024400000000000e7
:103e380000000000594000000000000000408f0012
:103e4800400000000000000088c34000000000009f
:103e580000006a00f84000000000000080842e0086
:103e6800410000000000d000126341000000000083
:103e78000084d700974100000000000065cdcd0008
:103e88004100000000205f00a00242000000000086
:103e9800801daf001544000000004000593e290075
:103ea800460000000000000000f07f000000000055
:103eb80000000000f07f0000000000000000f0009b
:103ec8007f0000000000000000f07f0000000000fc
:103ed80000000000f07f0000000000000000f0007b
:103ee8007f0000000000000000f07f0000000000dc
:103ef80000000000f07f0000000000000000f0005b
:103f08007f000000620a0000260000000200000096
:103f1800640aa2000a000000a20a090000000000ca
:103f28000200a0000a000000a00a0600020100002a
:103f3800000000000000000000000600020200006f
:103f480000000000a00a00000600000000000000b9
:103f5800a60a0000020000000200000001000000a4
:043f68000000000055
:020000040000fa
:103f6c000000fa001005200083000700e116800015
:103f7c0000f02f0000806000e0168800d6a2a90097
:103f8c00cbe2a900d682a900c116800000f02f0058
:103f9c0000806000c0168800d2a2a900c7e2a90068
:103fac00d282a900e116800000f02f000080600092
:103fbc00e0168800e116800080032000008070006d
:103fcc00e0168800d682a800000000000000000067
:103fdc0000000000d682a900b00120006600070096
:103fec00e116800000f02f0000806000e0168800d1
:103ffc00e11680008003200000807000e01688002d
:10400c00d682a800000000000000000000000000a4
:10401c00d682a9002000200065000700e116800070
:10402c0000f02f0000806000e0168800e116800090
:10403c008003200000807000e0168800d682a80063
:10404c00000000000000000000000000d682a90063
:10405c00200020005600070080c3b30006000700b4
:10406c00c0c0b3000400070060c0b300020007002a
:10407c000080fa00000006000200fa00004f7800f1
:10408c00e116800000f02f0000806000e016880030
:10409c009e00fb00e016800000807000e016880097
:1040ac00d6a2a900cbe2a900d682a800000000008d
:1040bc000000000000000000d682a900b001200022
:1040cc002d0007000080fa00000006000200fa0034
:1040dc00004f7800d6a2a900cbe2a800e116800020
:1040ec0000f02f0000806000e01688009e00fb00ae
:1040fc00e016800000807000e0168800d682a800d0
:10410c00000000000000000000000000d682a900a2
:10411c00cbe2a90020002000250007002000200091
:10412c00230007000080fa00000006000400fa00db
:10413c00100798001e00900096f60700004f7800bc
:10414c00090037001e009000104078008040780075
:10415c001e0090000000e800100798000140780055
:10416c00daff07001e4fe9001e04e000f5ff3a00dd
:10417c000080fa00000006000200fa00000f780030
:10418c001e00e800004388006028ed006008e20093
:10419c0005003200800c0800010000000000000047
:1041ac0000000000f8ff37000080fa000000060055
:1041bc000200fa00000f78001e00e800004388009f
:1041cc006028ed006008e20005003200dc05080004
:1041dc00010000000000000000000000f8ff3700a4
:0841ec000080fa00000006004b
:00000001FF
